:020000040800F2
:10C0000000000120C5C20008CBC20008CFC2000852
:10C0100041C3000845C300088DC3000800000000AC
:10C02000000000000000000000000000D5C3000870
:10C03000D9C3000800000000DDC3000879C800086B
:10C04000F1C30008F1C30008F1C30008F1C3000800
:10C05000F1C30008F1C30008F1C30008F1C30008F0
:10C06000F1C30008F1C30008F1C30008F1C30008E0
:10C07000F1C30008F1C30008F1C30008F1C30008D0
:10C08000F1C30008F1C30008F1C30008000000007C
:10C09000000000000000000000000000F1C30008E4
:10C0A000F1C30008F1C30008F1C30008F1C30008A0
:10C0B000F1C30008F1C30008F1C30008F1C3000890
:10C0C000F1C30008F1C30008F1C30008F1C3000880
:10C0D000F1C30008E5C7000801C80008000000001F
:10C0E000F1C30008F1C30008F1C30008000000001C
:10C0F000000000000000000000000000F1C3000884
:10C1000000000000F1C30008F1C30008F1C30008FB
:10C11000000000000000000000000000000000001F
:10C12000F1C30008F1C30008F1C30008F1C300081F
:10C13000F1C3000800000000000000000000000043
:10C14000000000000000000000000000F1C3000833
:10C15000F1C30008F1C30008F1C300081DC80008BE
:10C16000F1C30008F1C30008000000000000000057
:10C1700000000000000000000000000000000000BF
:10C1800000000000F1C300080000000000000000F3
:10C19000F1C3000800B583B000F0BAF9384B394A52
:10C1A0001360394A1360394900E02146384B9942FF
:10C1B0000BD20A684B6801F10C0488689842F4D9E4
:10C1C0001168196004330432F8E72E4B1A68314BBA
:10C1D0009A4200D0FEE72C4B1A682F4B9A42F9D1B5
:10C1E000274B2E4A13602E4A13602E4B05E0002089
:10C1F000106004329342FAD80B462B4A934204D281
:10C20000194651F8082B5B68F4E7244B1B6813B9F7
:10C21000234B1B6803B1FEE700F0B8FE694601A896
:10C2200000F022F9214C224BE41AA4100025AC4264
:10C2300014DC204C204BE41AA4100025AC4213DC83
:10C240000099019800F0A4FE05461C4C1C4BE41A12
:10C25000A410002C0EDC284600F0E2F8144B53F832
:10C26000253098470135E2E7134B53F825309847BE
:10C270000135E3E7013C124B53F824309847E8E7D7
:10C28000BABADECA00000020B4000020F4C30008DF
:10C290000CC400087856341232547698B800002046
:10C2A000680100200CC400081CC400081CC400085D
:10C2B0001CC400081CC400081CC400081CC40008DE
:10C2C0001CC4000808B5FFF765FF00BEFEE71EF0BE
:10C2D000040F0CBFEFF30880EFF309807146414A69
:10C2E00010472DE9F04182B004468846124B5E6B40
:10C2F0009F6B9D6A1B6B13F0020F03D00E4BDB6A22
:10C30000002B0CDB0D4800F0B7F8CDF800803B4661
:10C3100032462946204600F007F900BEFEE74BF6FC
:10C32000AB6100F07BF90028ECD0034B4FF00042EA
:10C33000DA6202B0BDE8F08100ED00E004DE000842
:10C3400000BEFEE71EF0040F0CBFEFF30880EFF312
:10C3500009807146244A10472DE9F04182B0044615
:10C360008846084B5E6B9F6B9D6A074800F084F817
:10C37000CDF800803B4632462946204600F0D4F8EE
:10C3800000BEFEE700ED00E014DE00081EF0040F22
:10C390000CBFEFF30880EFF309807146134A104792
:10C3A0002DE9F04182B004468846084B5E6B9F6BD6
:10C3B0009D6A074800F060F8CDF800803B463246A1
:10C3C0002946204600F0B0F800BEFEE700ED00E090
:10C3D00020DE000800BEFEE700BEFEE700BEFEE76E
:10C3E00070470000E3C2000859C30008A1C3000859
:04C3F00000BEFEE7A6
:10C3F400C4DE000800000020B8000020C4DE0008ED
:10C404000000001000000010B80000206C010020A3
:08C41400000000100000001000
:10C42000FEE7000008B503460C4A12685AB10B4AF1
:10C430001068033323F003030344094A934206D8E8
:10C44000064A136008BD054A06491160EFE700F08F
:10C45000D7FF0C2303604FF0FF30F3E7BC00002050
:10C4600000FC00206C01002001230360014B0B60E5
:10C47000704700BF040000200FB400B583B004ABC8
:10C4800053F8042B01938021064800F0EBFF0028AD
:10C4900003DD0146034800F037F803B05DF804EB14
:10C4A00004B07047C40000202DE9F04385B0044675
:10C4B0000F4643560BB10E461EE004252846214682
:10C4C000ABBE0446384605B0BDE8F08314F9011B45
:10C4D00004AA1A4402F8101C0133AB42F6D304AA92
:10C4E0001344002203F8102C4FF00408E94640469C
:10C4F0004946ABBE8046761B002EE3D03546102E53
:10C5000028BF10250023E8E708B5FFF7CDFF08BDD9
:10C5100008B500F093F8024A024B9A6008BD00BFCC
:10C5200000C0000800ED00E0F8B504460D461746CF
:10C530001E462748FFF7A0FF21682648FFF79CFF0B
:10C5400061682548FFF798FFA1682448FFF794FF2A
:10C55000E1682348FFF790FF21692248FFF78CFF2D
:10C5600061692148FFF788FFA1692048FFF784FF30
:10C57000E1691F48FFF780FF1E48FFF77DFF29464E
:10C580001D48FFF779FF1D4CE16A1D48FFF774FF56
:10C59000216B1C48FFF770FFE16B1B48FFF76CFF36
:10C5A00015F0800F0AD115F4004F0CD11748FFF792
:10C5B00063FF06991648FFF75FFFF8BD3946154837
:10C5C000FFF75AFFEFE731461348FFF755FFEDE756
:10C5D000E8DC0008F8DC000808DD000818DD0008C9
:10C5E00028DD000838DD000848DD000858DD0008B7
:10C5F00068DD000878DD000884DD000800ED00E05B
:10C6000094DD0008A4DD0008B4DD0008E4DD0008C6
:10C61000ECDD0008C4DD0008D4DD000883691A8859
:10C620008A4201D0002070470268033A012A03D8E9
:10C630000233836101207047002070470C4B1A6859
:10C6400042F001021A60002199601A6822F0847297
:10C6500022F480321A60074A5A601A6822F4802253
:10C660001A60D960044B4FF000629A60704700BFB7
:10C67000003802401030002400ED00E0000000000F
:10C6800070B505460C460023CB60C389DBB1012B96
:10C6900036D0EA89AB881B0343EAC2332A8943EACE
:10C6A00082236A8943EA4223E360AB89012B4CD0A1
:10C6B000002B45D0022B4DD000232360236823F0AC
:10C6C0002003236070BD03689A009B0F26A1D1E967
:10C6D000000100F015FD264EA6FB00325109642230
:10C6E00002FB110213013233A6FB03235B0903F0A3
:10C6F000F00202EB011203F00F031344A360C8E73A
:10C7000002680021921841EB010317A1D1E9000151
:10C7100000F0F6FC164EA6FB00325109642202FB23
:10C720001102D3003233A6FB03235B095A0002F443
:10C73000F87202EB011203F007031344A360A8E7A9
:10C74000E36843F00803E360B6E7E36843F00403FB
:10C75000E360B1E7E36843F00803E360E36843F0B4
:10C760000403E360A8E700BF00C2EB0B0000000079
:10C770001F85EB51036823F020030360C36843F473
:10C780000053C3607047036813F0800FFBD0416013
:10C79000036813F0400FFBD0036823F040030360ED
:10C7A000704700000023026812F0200F04D1064AEF
:10C7B000934201D80133F6E7044A934202D040681D
:10C7C000C0B27047FF2070471FA1070020A10700DB
:10C7D000036813F0200F03D043680B7001207047EB
:10C7E0000020704708B5044B00221A60034B1B68F9
:10C7F00003B1984708BD00BF001001406001002050
:10C8000008B5044B00221A60034B1B6803B198471C
:10C8100008BD00BF004400405801002008B5044B8B
:10C8200000221A60034B1B6803B1984708BD00BF84
:10C83000001401405C010020024A136823F0040345
:10C840001360704710E000E00A4B586000229A60C5
:10C850001A6842F001021A60064B1B6813F4803F0D
:10C86000FAD0044B1A6822F001021A6000225A60C2
:10C870009A60704710E000E008B50D4B1B78012B63
:10C8800006D00C4B1B6803B198470B4B1B6808BDC7
:10C89000094B1A6822F002021A601A6822F001029B
:10C8A0001A6000225A609A60014B1A70E9E700BFD3
:10C8B000480100204401002010E000E00E4B1A68FF
:10C8C00042F400221A601A6822F480221A601A6860
:10C8D00042F001021A601A6842F480321A609A68C3
:10C8E00022F001029A609A6822F002029A609A6825
:10C8F00042F080029A6070470038024003282AD82C
:10C900001F292AD8431E032B29D8DFE803F0020C85
:10C91000141C10B4134C236B012202FA01F11943C9
:10C92000216310BC70470F4A136C012000FA01F11B
:10C930001943116470470B4A536C012000FA01F14E
:10C94000194351647047074A136D012000FA01F141
:10C950001943116570470020704700207047002080
:10C96000704700BF0038024010B4012812D018B13F
:10C9700002281DD010BC7047144B186849000324CE
:10C980008C4020EA04001860186802FA01F10143A3
:10C990001960EFE70E4B1868490003248C4020EA29
:10C9A00004001860186802FA01F101431960E1E718
:10C9B000084B1868490003248C4020EA04001860E2
:10C9C000186802FA01F101431960D3E70000024040
:10C9D000000402400008024002BB01280CD010B144
:10C9E000022812D070471E484368012202FA01F162
:10C9F00023EA0101416070471A484368012202FAA4
:10CA000001F123EA010141607047174843680122A0
:10CA100002FA01F123EA010141607047012A00D0C6
:10CA2000704701280BD010B1022810D070470C4875
:10CA30004368012202FA01F1194341607047094835
:10CA40004368012202FA01F1194341607047064828
:10CA50004368012202FA01F119434160E0E700BF97
:10CA600000000240000402400008024010B4012807
:10CA700012D018B102281DD010BC7047144B986812
:10CA8000490003248C4020EA04009860986802FA68
:10CA900001F101439960EFE70E4B986849000324C8
:10CAA0008C4020EA04009860986802FA01F1014382
:10CAB0009960E1E7084B9868490003248C4020EA1C
:10CAC00004009860986802FA01F101439960D3E785
:10CAD0000000024000040240000802400F2933D841
:10CAE000032A31D810B4012812D018B102281DD061
:10CAF00010BC7047154BD868490003248C4020EACD
:10CB00000400D860D86802FA01F10143D960EFE768
:10CB10000F4BD868490003248C4020EA0400D860F9
:10CB2000D86802FA01F10143D960E1E7094BD868FE
:10CB3000490003248C4020EA0400D860D86802FA37
:10CB400001F10143D960D3E7704700BF0000024004
:10CB50000004024000080240012A07D0002A3DD10B
:10CB600001282AD000B3022830D0704701280BD00A
:10CB700010B1022810D0704719484369012202FA07
:10CB800001F119434161704716484369012202FAD5
:10CB900001F119434161704713484369012202FAC8
:10CBA00001F11943416170470D484369012202FABE
:10CBB00001F123EA0101416170470A4843690122FA
:10CBC00002FA01F123EA0101416170470648436915
:10CBD000012202FA01F123EA01014161704700BF1D
:10CBE00000000240000402400008024010B407297F
:10CBF00020D818B101280FD010BC7047204B186AFC
:10CC000089000F248C4020EA04001862186A02FA96
:10CC100001F101431962EFE71A4B186A89000F24EA
:10CC20008C4020EA04001862186A02FA01F10143FC
:10CC30001962E1E70F29DFD888B10128DCD110485B
:10CC4000446AA1F108039B000F21994024EA0101E5
:10CC50004162446A02FA03F121434162CCE7084B86
:10CC60005C6AA1F1080080000F21814024EA0101E3
:10CC700059625C6A02FA00F121435962BCE700BFC5
:10CC8000000002400004024010B50446827841785A
:10CC90000078FFF769FEE27861782078FFF79CFE64
:10CCA000227961782078FFF7E1FE62796178207857
:10CCB000FFF714FFA27961782078FFF797FF10BD86
:10CCC00070B50024264601E0013464B2092C0EDC64
:10CCD0000B48FFF767FD0546092CF5D1084E304695
:10CCE000FFF760FD3046FFF75DFD2E46ECE71EB115
:10CCF000212E03D0002000E0012070BD0120FCE7C0
:10CD00000044004010B5002406E0064B195D0648BB
:10CD1000FFF739FD013464B20B2CF6DDFFF7D0FFCD
:10CD200010BD00BF50DE00080044004038B5054685
:10CD3000002405E0295D0548FFF725FD013464B2B4
:10CD40000C2CF7DDFFF7BCFF38BD00BF00440040EE
:10CD500008B5FFF7D7FF012801D0002008BD024821
:10CD6000FFF7E4FFFAE700BF6CDE000810B500240F
:10CD700006E0064B195D0648FFF705FD013464B275
:10CD80000B2CF6DDFFF79CFF10BD00BF44DE000852
:10CD9000004400402DE9F04180460F46CEB206F136
:10CDA0000E05EDB2002406E0114B195D1148FFF7A6
:10CDB000EAFC013464B2092CF6DD0E4C41462046F3
:10CDC000FFF7E1FCC7F307212046FFF7DCFC314603
:10CDD0002046FFF7D8FC00212046FFF7D4FC294667
:10CDE0002046FFF7D0FCFFF76BFFBDE8F08100BFE6
:10CDF0007CDE0008004400402DE9F0478246894669
:10CE000090461F460024264601E0013464B2092CF6
:10CE100021DC1648FFF7C6FC0546092CF5D1134E58
:10CE20003046FFF7BFFC8AF800003046FFF7BAFC37
:10CE300089F800003046FFF7B5FC88F8000030465E
:10CE4000FFF7B0FC38703046FFF7ACFC3046FFF718
:10CE5000A9FC2E46D9E71EB1212E04D0002000E007
:10CE60000120BDE8F0870120FBE700BF004400403F
:10CE700030B583B0054600248DF807408DF8064094
:10CE80008DF805408DF8044006E00D4B195D0D4806
:10CE9000FFF779FC013464B2102CF6DD0DF10603C6
:10CEA0000DF1070201A90DF10500FFF7A5FF9DF89F
:10CEB00005209DF8043043EA02232B8003B030BDE7
:10CEC00030DE00080044004008B5FFF71BFF0128D2
:10CED00001D0002008BD0248FFF728FFFAE700BF95
:10CEE0005CDE000838B54FF47A70FFF7ADFC002522
:10CEF0002C46012C20D04FF47A70FFF7A5FCFFF7E9
:10CF0000E3FF0128F5D10D48FFF79EFCFFF720FF56
:10CF10000446012801D00025EBE7FFF727FF07486B
:10CF2000FFF792FC064D29780120FFF733FF2B789D
:10CF300001332B702546DCE7284638BD40420F0000
:10CF40004B00002070B506464FF47A70FFF77CFC6A
:10CF500000252C46012C15D0FFF7B6FF044601280A
:10CF6000F8D1094D2846FFF76FFCFFF7FFFE284672
:10CF7000FFF76AFC3046FFF77BFF05460128E9D042
:10CF80000025E7E7284670BD40420F0070470000CB
:10CF900080B582B0FFF792FC11210220FFF7AEFCB2
:10CFA00004210320FFF7AAFC00210120FFF7A6FCC3
:10CFB00001210846FFF7A2FC0E210320FFF79EFC8B
:10CFC000FFF73AFC00240094CDF8034001258DF8CA
:10CFD00002503F48FFF758FE3E48FFF755FE3E48D7
:10CFE000FFF752FE3D48FFF74FFE6846FFF74CFE45
:10CFF0003B4F39463B48FFF743FB3B4E31463B48EE
:10D00000FFF73EFB3846FFF7B5FB3046FFF7B2FBB4
:10D010002A469DF801109DF80000FFF79DFD4FF492
:10D020007A70FFF711FC22469DF801109DF8000070
:10D03000FFF792FD1BE0012823D108E02A4C47218D
:10D040002046FFF7A0FB2A492046FFF7C1FBFFF768
:10D0500049FF0128F2D1244C53212046FFF793FBCE
:10D0600023492046FFF7B4FB224B49221A70214C7A
:10D0700021461D48FFF7ACFB1F4B18702378522B3D
:10D08000D9D0412BF3D10128F1D11C48FFF75AFF29
:10D0900001280CD0144C46212046FFF774FB14499C
:10D0A0002046FFF795FB134B49221A70DFE7012258
:10D0B0009DF801109DF80000FFF74EFD0A4C53212A
:10D0C0002046FFF760FB0A492046FFF781FBEAE7AD
:10D0D0003C0000202C0000204400002034000020F0
:10D0E000004400401C000020001001400C00002003
:10D0F000640100204C000020650100206601002032
:10D1000053B94AB9002908BF00281CBF4FF0FF31AE
:10D110004FF0FF3000F072B9ADF1080C6DE904CEAC
:10D1200000F006F8DDF804E0DDE9022304B0704702
:10D130002DE9F047089E04468846002B4BD18A42D1
:10D14000154667D9B2FA82F24AB1C2F1200701FA54
:10D1500002F320FA07F7954047EA030894404FEAA4
:10D16000154E230CB8FBFEF71FFA85FC0EFB178843
:10D1700043EA084307FB0CF1994209D9EB1807F180
:10D18000FF3080F01B81994240F21881023F2B440E
:10D190005B1AA4B2B3FBFEF00EFB103344EA034467
:10D1A00000FB0CFCA44509D92C1900F1FF3380F0D9
:10D1B0000781A44540F2048102382C4440EA07402C
:10D1C000A4EB0C0400271EB1D4400023C6E90043A1
:10D1D0003946BDE8F0878B4209D9002E00F0EB807C
:10D1E0000027C6E9000138463946BDE8F087B3FAA2
:10D1F00083F7002F47D18B4202D3824200F2FA809C
:10D20000841A61EB030301209846002EE0D0C6E9A2
:10D210000048DDE702B9FFDEB2FA82F2002A40F0F0
:10D220008F80491B4FEA154E1FFA85F80127B1FB85
:10D23000FEFC230C0EFB1C1143EA014308FB0CF11E
:10D24000994207D9EB180CF1FF3002D2994200F253
:10D25000CD808446591AA3B2B1FBFEF00EFB101428
:10D2600043EA044408FB00F8A04507D92C1900F153
:10D27000FF3302D2A04500F2B6801846A4EB0804A2
:10D2800040EA0C409FE7C7F1200CBB4022FA0CFE9D
:10D290004EEA030E01FA07F420FA0CF521FA0CF31A
:10D2A0004FEA1E482543B3FBF8F92C0C08FB193351
:10D2B0001FFA8EFA44EA034309FB0AF49C4202FA7D
:10D2C00007F200FA07F10BD91EEB030309F1FF3057
:10D2D00080F087809C4240F28480A9F10209734467
:10D2E0001B1BADB2B3FBF8F008FB103345EA034457
:10D2F00000FB0AFAA24508D91EEB040400F1FF3333
:10D300006BD2A24569D90238744440EA0940A0FBB7
:10D310000289A4EB0A044C45C2464B4654D351D073
:10D32000002E69D0B1EB0A0564EB030404FA0CFC8F
:10D33000FD40FC404CEA0505C6E90054002747E7DC
:10D34000C2F1200320FA03F7954001FA02F021FA16
:10D3500003F34FEA154E3843010CB3FBFEF71FFAF7
:10D3600085F80EFB173341EA034107FB08F38B42B4
:10D3700004FA02F407D9691807F1FF3C2FD28B4257
:10D380002DD9023F2944CB1A81B2B3FBFEF00EFB2C
:10D39000103341EA034100FB08F38B4207D96918B7
:10D3A00000F1FF3C17D28B4215D902382944C91A23
:10D3B00040EA07473BE73746304609E70746E7E6D6
:10D3C0001846FBE64145ABD2B8EB020A69EB0E0208
:10D3D00001381346A4E76046E9E7184695E7674633
:10D3E000D1E781467CE702382C4447E7ACF1020CD8
:10D3F0002B442FE7384608E73746E9E6704700BF79
:10D40000014B1868704700BF5000002030B5141E53
:10D4100005469BB0184605DA8B232B604FF0FF3092
:10D420001BB030BD4FF40273ADF80C3014BF04F1E3
:10D43000FF332346029305934FF6FF730091049147
:10D44000ADF80E3002461E9B6946284600F072F881
:10D45000431CBCBF8B232B60002CE1D0009B00221F
:10D460001A70DDE707B5009313460A4601460348E4
:10D470000068FFF7CBFF03B05DF804FB500000200D
:10D480002DE9F0478E689E4282460C4690469946AA
:10D4900037D88A8912F4906F31D0256809696F1ADC
:10D4A0006569022305EB450595FBF3F509F10103D9
:10D4B0003B449D4238BF1D46530530D5294600F0F8
:10D4C00079FB064650B90C23CAF80030A38943F013
:10D4D0004003A3814FF0FF30BDE8F0873A46216951
:10D4E00000F0F6FAA38923F4906343F08003A3814C
:10D4F000266165613E44ED1B2660A5604E464E45A3
:10D5000000D94E4632464146206800F0ECFAA36846
:10D510009B1BA36023681E4426600020DCE72A468C
:10D5200000F0A2FB06460028E2D12169504600F037
:10D53000F3FAC8E72DE9F04F9DB0804603938B893D
:10D540001D060C4616460FD50B696BB9402100F03D
:10D5500031FB2060206128B90C23C8F800304FF05F
:10D56000FF30C7E0402363610023099320238DF837
:10D57000293030238DF82A304FF0010B37463D46D5
:10D5800015F8013B0BB1252B3ED1B7EB060A0BD0AA
:10D590005346324621464046FFF772FF013000F005
:10D5A000A480099B534409933B78002B00F09D8095
:10D5B00000234FF0FF32CDE90523049307938DF844
:10D5C00053301A932F46052217F8011B4F4800F0DD
:10D5D0002FFA049BD0B9D90644BF20228DF85320DE
:10D5E0001A0744BF2B228DF853202A782A2A15D0F7
:10D5F000079A2F4600200A25394611F8013B303B97
:10D60000092B4DD9B8B10FE02F46B8E73F4A801A31
:10D610000BFA00F0184304903D46D3E7039A111D1E
:10D6200012680391002A01DB079204E0524243F0A2
:10D630000203079204933B782E2B0CD17B782A2B84
:10D6400033D1039B1A1D1B680392002BB8BF4FF008
:10D65000FF33023705932E4D39780322284600F018
:10D66000E7F938B14023401B03FA00F0049B034361
:10D6700001370493397827488DF8281006227E1C3C
:10D6800000F0D6F9002838D0234B13BB039B073397
:10D6900023F0070308330393099B4B4409936DE779
:10D6A00005FB023201200F46A6E700230137059350
:10D6B00019460A25384610F8012B303A092A03D9B1
:10D6C000002BC8D00591C6E705FB012101230746C1
:10D6D000F0E703AB00932246104B04A94046AFF39A
:10D6E0000080B0F1FF3F8146D6D1A3895B063FF5AC
:10D6F00036AF09981DB0BDE8F08F03AB009322460A
:10D70000064B04A9404600F081F8EAE786DE0008EF
:10D710008CDE000890DE00080000000081D40008C4
:10D720002DE9F04791461F468A680B69DDF8208095
:10D730009342B8BF1346C9F8003091F8432006461B
:10D740000C4612B10133C9F800302368990642BF74
:10D75000D9F800300233C9F80030256815F0060505
:10D7600007D104F1190AE368D9F800209B1AAB42EB
:10D7700028DC94F843302268003318BF0123920656
:10D780002DD404F1430239463046C047013020D041
:10D790002368E568D9F8002003F00603042B08BFCE
:10D7A000AD1AA36822690CBF25EAE57500259342EE
:10D7B000C4BF9B1AED184FF000091A344D451AD119
:10D7C000002008E00123524639463046C047013068
:10D7D00003D14FF0FF30BDE8F0870135C3E7E11812
:10D7E0005A1C302081F84300224494F8451082F8F6
:10D7F00043100233C5E70123224639463046C0476D
:10D800000130E6D009F10109D8E700002DE9F04325
:10D8100001F1430C0C46097E85B06E291746064679
:10D8200098460C9A00F0B38022D8632936D00AD8E3
:10D83000002900F0B980582900F0838004F14205E6
:10D8400084F8421032E0642901D06929F6D12068B9
:10D850001368050603F104012AD51B681160002B2B
:10D8600003DA2D225B4284F843206F480A2239E014
:10D87000732900F09D8008D86F2920D07029DDD150
:10D88000236843F02003236003E0752917D078292B
:10D89000D4D1782384F84530644855E01368191DC5
:10D8A0001B68116004F1420584F8423001238CE0CA
:10D8B0001B68116010F0400F18BF1BB2CFE7136850
:10D8C0002568181D1060280601D51B6802E068064F
:10D8D000FBD51B8854486F2914BF0A220822002157
:10D8E00084F843106568A560002DC0F2958021681A
:10D8F00021F004012160002B3DD1002D40F08E80ED
:10D900006546082A0BD12368DB0708D523696268BE
:10D910009A42DEBF302305F8013C05F1FF35ACEB40
:10D9200005032361CDF800803B4603AA214630461B
:10D93000FFF7F6FE01304DD14FF0FF3005B0BDE8E6
:10D94000F083394884F84510136821681D1D1B6851
:10D9500015600A060BD5CA0744BF41F020012160BB
:10D960001BB9226822F0200222601022B7E74D0680
:10D9700048BF9BB2EFE76546B3FBF2F102FB113300
:10D98000C35C05F8013D0B460029F5D1B9E71368E2
:10D9900025686169181D106028061B6801D519608B
:10D9A00002E06A06FBD51980002323616546B9E7CA
:10D9B0001368191D11601D6862680021284600F077
:10D9C00037F808B1401B606063682361002384F866
:10D9D0004330A7E723692A4639463046C04701301D
:10D9E000AAD023689B0713D4E068039B9842B8BF72
:10D9F0001846A3E701234A4639463046C04701305E
:10DA00009AD00135E368039A9B1AAB42F2DCEBE74C
:10DA1000002504F11909F5E7002BACD1037884F84F
:10DA2000423004F142056CE797DE0008A8DE0008EA
:10DA300001F0FF01102A2BDB10F0070F08D010F8BF
:10DA4000013B013A8B422DD010F0070F42B3F6D1C3
:10DA5000F0B441EA012141EA014122F007047FF0DC
:10DA600000070023F0E80256083C85EA010586EA33
:10DA7000010685FA47F5A3FA87F586FA47F6A5FA6F
:10DA800087F68EB9EED1F0BC01F0FF0102F007027B
:10DA900032B110F8013B013A83EA010313B1F8D126
:10DAA0000020704701387047002D06BF3546033807
:10DAB000073815F0010F07D1013015F4807F02BF40
:10DAC000013015F4C03F0130F0BC0138704700BF91
:10DAD00010B5431E0A44914200D110BD11F8014B0C
:10DAE00003F8014FF7E7884210B501EB020307D8AE
:10DAF000421E99420AD011F8014B02F8014FF8E793
:10DB00008342F5D98118D21AD34200D110BD13F83F
:10DB1000014D01F8014DF7E738B50546002945D01C
:10DB200051F8043C0C1F002BB8BFE41800F0D2F8E9
:10DB30001F4A1368104633B9636014602846BDE875
:10DB4000384000F0C8B8A3420CD92168621893424B
:10DB500004BF1A685B68636004BF521822600460E7
:10DB6000ECE713465A680AB1A242FAD91968581864
:10DB7000A0420BD120680144581882421960DDD1BF
:10DB8000106852685A6001441960D7E702D90C2323
:10DB90002B60D3E7206821188A4204BF11685268BD
:10DBA000626004BF091821605C60C7E738BD00BF30
:10DBB0004C01002070B5CD1C25F0030508350C2D57
:10DBC00038BF0C25002D064601DBA94203D90C23E2
:10DBD0003360002070BD00F07DF8214A14682146B2
:10DBE00091B9204C23681BB9304600F063F82060DF
:10DBF0002946304600F05EF8431C24D10C233360E4
:10DC0000304600F068F8E4E70B685B1B18D40B2B78
:10DC10000FD90B60CD50CC18304600F05CF804F101
:10DC20000B00231D20F00700C31AD3D05A42E25044
:10DC3000D0E78C424B6816BF636013600C46EBE77D
:10DC40000C464968CCE7C41C24F00304A04205D06C
:10DC5000211A304600F02EF80130CFD02560DBE7E6
:10DC60004C01002050010020F8B5074614460E462E
:10DC700021B91146BDE8F840FFF79CBF22B9FFF774
:10DC80004BFF25462846F8BD00F026F8A0420FD2EB
:10DC900021463846FFF78EFF05460028F2D0314670
:10DCA0002246FFF715FF31463846FFF735FFE9E713
:10DCB0003546E7E738B5064C00230546084623609D
:10DCC000FEF7B0FB431C02D1236803B12B6038BDC3
:10DCD000540100207047704751F8043C181F002B76
:10DCE000BCBF0B58C0187047537461636B206672D9
:10DCF000616D653A0A000000205230203D20202549
:10DD00003038580A00000000205231203D202025E4
:10DD10003038580A00000000205232203D202025D3
:10DD20003038580A00000000205233203D202025C2
:10DD30003038580A0000000020523132203D2025A2
:10DD40003038580A00000000204C52203D20202589
:10DD50003038580A00000000205043203D20202584
:10DD60003038580A0000000020505352203D202532
:10DD70003038580A000000004653522F4641523AAC
:10DD80000A0000002043465352203D202025303811
:10DD9000580A00002048465352203D2020253038A4
:10DDA000580A00002044465352203D202025303898
:10DDB000580A00002041465352203D20202530388B
:10DDC000580A0000204D4D464152203D2025303854
:10DDD000580A00002042464152203D20202530387C
:10DDE000580A00004D6973630A000000204C522F4E
:10DDF0004558435F52455455524E3D2025303858C2
:10DE00000A0000005B486172644661756C745D0ACB
:10DE1000000000005B4275734661756C745D0A001A
:10DE20005B55736167654661756C745D0A0000003F
:10DE3000EF01FFFFFFFF0100080401000A005A0084
:10DE400072000000EF01FFFFFFFF01000305000962
:10DE5000EF01FFFFFFFF010003010005EF01FFFFDE
:10DE6000FFFF01000402010008000000EF01FFFFB6
:10DE7000FFFF01000402020009000000EF01FFFFA4
:10DE8000FFFF01000606232D302B2000686C4C009C
:10DE900065666745464700303132333435363738AA
:10DEA0003941424344454600303132333435363708
:09DEB000383961626364656600A3
:08DEBC0074F2FF7F0100000079
:10DEC40078563412C00000200000000080250000B5
:10DED4000000000000000000020001008025000096
:10DEE4000000000000000000020001000003020026
:10DEF400010007FF000A0200010007FF0002020000
:10DF0400010007FF000902000100071449FFFFFF99
:10DF14005400002000000000000000000000000089
:10DF240000000000000000000000000000000000ED
:10DF340000000000000000000000000000000000DD
:10DF440000000000000000000000000000000000CD
:10DF540000000000000000000000000000000000BD
:10DF640000000000000000000000000000000000AD
:08DF7400000000003254769811
:040000050800C19599
:00000001FF
